{
  "_format": "hh-sol-artifact-1",
  "contractName": "GTASNFT",
  "sourceName": "contracts/GTASNFT.sol",
  "abi": [
    {
      "inputs": [],
      "stateMutability": "nonpayable",
      "type": "constructor"
    },
    {
      "anonymous": false,
      "inputs": [
        {
          "indexed": true,
          "internalType": "address",
          "name": "owner",
          "type": "address"
        },
        {
          "indexed": true,
          "internalType": "address",
          "name": "approved",
          "type": "address"
        },
        {
          "indexed": true,
          "internalType": "uint256",
          "name": "tokenId",
          "type": "uint256"
        }
      ],
      "name": "Approval",
      "type": "event"
    },
    {
      "anonymous": false,
      "inputs": [
        {
          "indexed": true,
          "internalType": "address",
          "name": "owner",
          "type": "address"
        },
        {
          "indexed": true,
          "internalType": "address",
          "name": "operator",
          "type": "address"
        },
        {
          "indexed": false,
          "internalType": "bool",
          "name": "approved",
          "type": "bool"
        }
      ],
      "name": "ApprovalForAll",
      "type": "event"
    },
    {
      "anonymous": false,
      "inputs": [
        {
          "indexed": true,
          "internalType": "address",
          "name": "previousOwner",
          "type": "address"
        },
        {
          "indexed": true,
          "internalType": "address",
          "name": "newOwner",
          "type": "address"
        }
      ],
      "name": "OwnershipTransferred",
      "type": "event"
    },
    {
      "anonymous": false,
      "inputs": [
        {
          "indexed": true,
          "internalType": "address",
          "name": "from",
          "type": "address"
        },
        {
          "indexed": true,
          "internalType": "address",
          "name": "to",
          "type": "address"
        },
        {
          "indexed": true,
          "internalType": "uint256",
          "name": "tokenId",
          "type": "uint256"
        }
      ],
      "name": "Transfer",
      "type": "event"
    },
    {
      "inputs": [
        {
          "internalType": "address",
          "name": "to",
          "type": "address"
        },
        {
          "internalType": "uint256",
          "name": "tokenId",
          "type": "uint256"
        }
      ],
      "name": "approve",
      "outputs": [],
      "stateMutability": "nonpayable",
      "type": "function"
    },
    {
      "inputs": [
        {
          "internalType": "address",
          "name": "owner",
          "type": "address"
        }
      ],
      "name": "balanceOf",
      "outputs": [
        {
          "internalType": "uint256",
          "name": "",
          "type": "uint256"
        }
      ],
      "stateMutability": "view",
      "type": "function"
    },
    {
      "inputs": [
        {
          "internalType": "uint256",
          "name": "tokenId",
          "type": "uint256"
        }
      ],
      "name": "getApproved",
      "outputs": [
        {
          "internalType": "address",
          "name": "",
          "type": "address"
        }
      ],
      "stateMutability": "view",
      "type": "function"
    },
    {
      "inputs": [],
      "name": "getOwners",
      "outputs": [
        {
          "internalType": "uint256",
          "name": "",
          "type": "uint256"
        }
      ],
      "stateMutability": "view",
      "type": "function"
    },
    {
      "inputs": [
        {
          "internalType": "address",
          "name": "owner",
          "type": "address"
        },
        {
          "internalType": "address",
          "name": "operator",
          "type": "address"
        }
      ],
      "name": "isApprovedForAll",
      "outputs": [
        {
          "internalType": "bool",
          "name": "",
          "type": "bool"
        }
      ],
      "stateMutability": "view",
      "type": "function"
    },
    {
      "inputs": [
        {
          "internalType": "address",
          "name": "to",
          "type": "address"
        },
        {
          "internalType": "address",
          "name": "from",
          "type": "address"
        },
        {
          "internalType": "uint256",
          "name": "tokenId",
          "type": "uint256"
        }
      ],
      "name": "makeTransfer",
      "outputs": [],
      "stateMutability": "nonpayable",
      "type": "function"
    },
    {
      "inputs": [],
      "name": "name",
      "outputs": [
        {
          "internalType": "string",
          "name": "",
          "type": "string"
        }
      ],
      "stateMutability": "view",
      "type": "function"
    },
    {
      "inputs": [],
      "name": "owner",
      "outputs": [
        {
          "internalType": "address",
          "name": "",
          "type": "address"
        }
      ],
      "stateMutability": "view",
      "type": "function"
    },
    {
      "inputs": [
        {
          "internalType": "uint256",
          "name": "tokenId",
          "type": "uint256"
        }
      ],
      "name": "ownerOf",
      "outputs": [
        {
          "internalType": "address",
          "name": "",
          "type": "address"
        }
      ],
      "stateMutability": "view",
      "type": "function"
    },
    {
      "inputs": [],
      "name": "renounceOwnership",
      "outputs": [],
      "stateMutability": "nonpayable",
      "type": "function"
    },
    {
      "inputs": [
        {
          "internalType": "address",
          "name": "to",
          "type": "address"
        },
        {
          "internalType": "string",
          "name": "uri",
          "type": "string"
        }
      ],
      "name": "safeMint",
      "outputs": [],
      "stateMutability": "nonpayable",
      "type": "function"
    },
    {
      "inputs": [
        {
          "internalType": "address",
          "name": "from",
          "type": "address"
        },
        {
          "internalType": "address",
          "name": "to",
          "type": "address"
        },
        {
          "internalType": "uint256",
          "name": "tokenId",
          "type": "uint256"
        }
      ],
      "name": "safeTransferFrom",
      "outputs": [],
      "stateMutability": "nonpayable",
      "type": "function"
    },
    {
      "inputs": [
        {
          "internalType": "address",
          "name": "from",
          "type": "address"
        },
        {
          "internalType": "address",
          "name": "to",
          "type": "address"
        },
        {
          "internalType": "uint256",
          "name": "tokenId",
          "type": "uint256"
        },
        {
          "internalType": "bytes",
          "name": "_data",
          "type": "bytes"
        }
      ],
      "name": "safeTransferFrom",
      "outputs": [],
      "stateMutability": "nonpayable",
      "type": "function"
    },
    {
      "inputs": [
        {
          "internalType": "address",
          "name": "operator",
          "type": "address"
        },
        {
          "internalType": "bool",
          "name": "approved",
          "type": "bool"
        }
      ],
      "name": "setApprovalForAll",
      "outputs": [],
      "stateMutability": "nonpayable",
      "type": "function"
    },
    {
      "inputs": [
        {
          "internalType": "bytes4",
          "name": "interfaceId",
          "type": "bytes4"
        }
      ],
      "name": "supportsInterface",
      "outputs": [
        {
          "internalType": "bool",
          "name": "",
          "type": "bool"
        }
      ],
      "stateMutability": "view",
      "type": "function"
    },
    {
      "inputs": [],
      "name": "symbol",
      "outputs": [
        {
          "internalType": "string",
          "name": "",
          "type": "string"
        }
      ],
      "stateMutability": "view",
      "type": "function"
    },
    {
      "inputs": [
        {
          "internalType": "uint256",
          "name": "index",
          "type": "uint256"
        }
      ],
      "name": "tokenByIndex",
      "outputs": [
        {
          "internalType": "uint256",
          "name": "",
          "type": "uint256"
        }
      ],
      "stateMutability": "view",
      "type": "function"
    },
    {
      "inputs": [
        {
          "internalType": "address",
          "name": "owner",
          "type": "address"
        },
        {
          "internalType": "uint256",
          "name": "index",
          "type": "uint256"
        }
      ],
      "name": "tokenOfOwnerByIndex",
      "outputs": [
        {
          "internalType": "uint256",
          "name": "",
          "type": "uint256"
        }
      ],
      "stateMutability": "view",
      "type": "function"
    },
    {
      "inputs": [
        {
          "internalType": "uint256",
          "name": "tokenId",
          "type": "uint256"
        }
      ],
      "name": "tokenURI",
      "outputs": [
        {
          "internalType": "string",
          "name": "",
          "type": "string"
        }
      ],
      "stateMutability": "view",
      "type": "function"
    },
    {
      "inputs": [],
      "name": "totalSupply",
      "outputs": [
        {
          "internalType": "uint256",
          "name": "",
          "type": "uint256"
        }
      ],
      "stateMutability": "view",
      "type": "function"
    },
    {
      "inputs": [
        {
          "internalType": "address",
          "name": "from",
          "type": "address"
        },
        {
          "internalType": "address",
          "name": "to",
          "type": "address"
        },
        {
          "internalType": "uint256",
          "name": "tokenId",
          "type": "uint256"
        }
      ],
      "name": "transferFrom",
      "outputs": [],
      "stateMutability": "nonpayable",
      "type": "function"
    },
    {
      "inputs": [
        {
          "internalType": "address",
          "name": "newOwner",
          "type": "address"
        }
      ],
      "name": "transferOwnership",
      "outputs": [],
      "stateMutability": "nonpayable",
      "type": "function"
    }
  ],
  "bytecode": "0x60806040526000600d553480156200001657600080fd5b506040518060400160405280600881526020017f47544153204e46540000000000000000000000000000000000000000000000008152506040518060400160405280600481526020017f474e46540000000000000000000000000000000000000000000000000000000081525081600090805190602001906200009b929190620001ab565b508060019080519060200190620000b4929190620001ab565b505050620000d7620000cb620000dd60201b60201c565b620000e560201b60201c565b620002c0565b600033905090565b6000600b60009054906101000a900473ffffffffffffffffffffffffffffffffffffffff16905081600b60006101000a81548173ffffffffffffffffffffffffffffffffffffffff021916908373ffffffffffffffffffffffffffffffffffffffff1602179055508173ffffffffffffffffffffffffffffffffffffffff168173ffffffffffffffffffffffffffffffffffffffff167f8be0079c531659141344cd1fd0a4f28419497f9722a3daafe3b4186f6b6457e060405160405180910390a35050565b828054620001b9906200025b565b90600052602060002090601f016020900481019282620001dd576000855562000229565b82601f10620001f857805160ff191683800117855562000229565b8280016001018555821562000229579182015b82811115620002285782518255916020019190600101906200020b565b5b5090506200023891906200023c565b5090565b5b80821115620002575760008160009055506001016200023d565b5090565b600060028204905060018216806200027457607f821691505b602082108114156200028b576200028a62000291565b5b50919050565b7f4e487b7100000000000000000000000000000000000000000000000000000000600052602260045260246000fd5b61389380620002d06000396000f3fe608060405234801561001057600080fd5b50600436106101425760003560e01c8063715018a6116100b8578063a6e491541161007c578063a6e4915414610377578063b88d4fde14610393578063c87b56dd146103af578063d204c45e146103df578063e985e9c5146103fb578063f2fde38b1461042b57610142565b8063715018a6146102f75780638da5cb5b1461030157806395d89b411461031f578063a0e67e2b1461033d578063a22cb4651461035b57610142565b806323b872dd1161010a57806323b872dd146101ff5780632f745c591461021b57806342842e0e1461024b5780634f6ccce7146102675780636352211e1461029757806370a08231146102c757610142565b806301ffc9a71461014757806306fdde0314610177578063081812fc14610195578063095ea7b3146101c557806318160ddd146101e1575b600080fd5b610161600480360381019061015c919061271e565b610447565b60405161016e9190612bb0565b60405180910390f35b61017f610459565b60405161018c9190612bcb565b60405180910390f35b6101af60048036038101906101aa9190612770565b6104eb565b6040516101bc9190612b49565b60405180910390f35b6101df60048036038101906101da91906126e2565b610570565b005b6101e9610688565b6040516101f69190612e6d565b60405180910390f35b61021960048036038101906102149190612588565b610695565b005b610235600480360381019061023091906126e2565b6106f5565b6040516102429190612e6d565b60405180910390f35b61026560048036038101906102609190612588565b61079a565b005b610281600480360381019061027c9190612770565b6107ba565b60405161028e9190612e6d565b60405180910390f35b6102b160048036038101906102ac9190612770565b610851565b6040516102be9190612b49565b60405180910390f35b6102e160048036038101906102dc9190612523565b610903565b6040516102ee9190612e6d565b60405180910390f35b6102ff6109bb565b005b610309610a43565b6040516103169190612b49565b60405180910390f35b610327610a6d565b6040516103349190612bcb565b60405180910390f35b610345610aff565b6040516103529190612e6d565b60405180910390f35b61037560048036038101906103709190612652565b610b09565b005b610391600480360381019061038c9190612588565b610b1f565b005b6103ad60048036038101906103a891906125d7565b610b47565b005b6103c960048036038101906103c49190612770565b610ba9565b6040516103d69190612bcb565b60405180910390f35b6103f960048036038101906103f4919061268e565b610bbb565b005b6104156004803603810190610410919061254c565b610bec565b6040516104229190612bb0565b60405180910390f35b61044560048036038101906104409190612523565b610c80565b005b600061045282610d78565b9050919050565b606060008054610468906130c3565b80601f0160208091040260200160405190810160405280929190818152602001828054610494906130c3565b80156104e15780601f106104b6576101008083540402835291602001916104e1565b820191906000526020600020905b8154815290600101906020018083116104c457829003601f168201915b5050505050905090565b60006104f682610df2565b610535576040517f08c379a000000000000000000000000000000000000000000000000000000000815260040161052c90612dad565b60405180910390fd5b6004600083815260200190815260200160002060009054906101000a900473ffffffffffffffffffffffffffffffffffffffff169050919050565b600061057b82610851565b90508073ffffffffffffffffffffffffffffffffffffffff168373ffffffffffffffffffffffffffffffffffffffff1614156105ec576040517f08c379a00000000000000000000000000000000000000000000000000000000081526004016105e390612e0d565b60405180910390fd5b8073ffffffffffffffffffffffffffffffffffffffff1661060b610e5e565b73ffffffffffffffffffffffffffffffffffffffff16148061063a575061063981610634610e5e565b610bec565b5b610679576040517f08c379a000000000000000000000000000000000000000000000000000000000815260040161067090612ced565b60405180910390fd5b6106838383610e66565b505050565b6000600880549050905090565b6106a66106a0610e5e565b82610f1f565b6106e5576040517f08c379a00000000000000000000000000000000000000000000000000000000081526004016106dc90612e2d565b60405180910390fd5b6106f0838383610ffd565b505050565b600061070083610903565b8210610741576040517f08c379a000000000000000000000000000000000000000000000000000000000815260040161073890612bed565b60405180910390fd5b600660008473ffffffffffffffffffffffffffffffffffffffff1673ffffffffffffffffffffffffffffffffffffffff168152602001908152602001600020600083815260200190815260200160002054905092915050565b6107b583838360405180602001604052806000815250610b47565b505050565b60006107c4610688565b8210610805576040517f08c379a00000000000000000000000000000000000000000000000000000000081526004016107fc90612e4d565b60405180910390fd5b6008828154811061083f577f4e487b7100000000000000000000000000000000000000000000000000000000600052603260045260246000fd5b90600052602060002001549050919050565b6000806002600084815260200190815260200160002060009054906101000a900473ffffffffffffffffffffffffffffffffffffffff169050600073ffffffffffffffffffffffffffffffffffffffff168173ffffffffffffffffffffffffffffffffffffffff1614156108fa576040517f08c379a00000000000000000000000000000000000000000000000000000000081526004016108f190612d2d565b60405180910390fd5b80915050919050565b60008073ffffffffffffffffffffffffffffffffffffffff168273ffffffffffffffffffffffffffffffffffffffff161415610974576040517f08c379a000000000000000000000000000000000000000000000000000000000815260040161096b90612d0d565b60405180910390fd5b600360008373ffffffffffffffffffffffffffffffffffffffff1673ffffffffffffffffffffffffffffffffffffffff168152602001908152602001600020549050919050565b6109c3610e5e565b73ffffffffffffffffffffffffffffffffffffffff166109e1610a43565b73ffffffffffffffffffffffffffffffffffffffff1614610a37576040517f08c379a0000000000000000000000000000000000000000000000000000000008152600401610a2e90612dcd565b60405180910390fd5b610a416000611264565b565b6000600b60009054906101000a900473ffffffffffffffffffffffffffffffffffffffff16905090565b606060018054610a7c906130c3565b80601f0160208091040260200160405190810160405280929190818152602001828054610aa8906130c3565b8015610af55780601f10610aca57610100808354040283529160200191610af5565b820191906000526020600020905b815481529060010190602001808311610ad857829003601f168201915b5050505050905090565b6000600d54905090565b610b1b610b14610e5e565b838361132a565b5050565b610b2a83838361079a565b600d6000815480929190610b3d90613126565b9190505550505050565b610b58610b52610e5e565b83610f1f565b610b97576040517f08c379a0000000000000000000000000000000000000000000000000000000008152600401610b8e90612e2d565b60405180910390fd5b610ba384848484611497565b50505050565b6060610bb4826114f3565b9050919050565b6000610bc7600c611645565b9050610bd3600c611653565b610bdd8382611669565b610be78183611687565b505050565b6000600560008473ffffffffffffffffffffffffffffffffffffffff1673ffffffffffffffffffffffffffffffffffffffff16815260200190815260200160002060008373ffffffffffffffffffffffffffffffffffffffff1673ffffffffffffffffffffffffffffffffffffffff16815260200190815260200160002060009054906101000a900460ff16905092915050565b610c88610e5e565b73ffffffffffffffffffffffffffffffffffffffff16610ca6610a43565b73ffffffffffffffffffffffffffffffffffffffff1614610cfc576040517f08c379a0000000000000000000000000000000000000000000000000000000008152600401610cf390612dcd565b60405180910390fd5b600073ffffffffffffffffffffffffffffffffffffffff168173ffffffffffffffffffffffffffffffffffffffff161415610d6c576040517f08c379a0000000000000000000000000000000000000000000000000000000008152600401610d6390612c2d565b60405180910390fd5b610d7581611264565b50565b60007f780e9d63000000000000000000000000000000000000000000000000000000007bffffffffffffffffffffffffffffffffffffffffffffffffffffffff1916827bffffffffffffffffffffffffffffffffffffffffffffffffffffffff19161480610deb5750610dea826116fb565b5b9050919050565b60008073ffffffffffffffffffffffffffffffffffffffff166002600084815260200190815260200160002060009054906101000a900473ffffffffffffffffffffffffffffffffffffffff1673ffffffffffffffffffffffffffffffffffffffff1614159050919050565b600033905090565b816004600083815260200190815260200160002060006101000a81548173ffffffffffffffffffffffffffffffffffffffff021916908373ffffffffffffffffffffffffffffffffffffffff160217905550808273ffffffffffffffffffffffffffffffffffffffff16610ed983610851565b73ffffffffffffffffffffffffffffffffffffffff167f8c5be1e5ebec7d5bd14f71427d1e84f3dd0314c0f7b2291e5b200ac8c7c3b92560405160405180910390a45050565b6000610f2a82610df2565b610f69576040517f08c379a0000000000000000000000000000000000000000000000000000000008152600401610f6090612ccd565b60405180910390fd5b6000610f7483610851565b90508073ffffffffffffffffffffffffffffffffffffffff168473ffffffffffffffffffffffffffffffffffffffff161480610fe357508373ffffffffffffffffffffffffffffffffffffffff16610fcb846104eb565b73ffffffffffffffffffffffffffffffffffffffff16145b80610ff45750610ff38185610bec565b5b91505092915050565b8273ffffffffffffffffffffffffffffffffffffffff1661101d82610851565b73ffffffffffffffffffffffffffffffffffffffff1614611073576040517f08c379a000000000000000000000000000000000000000000000000000000000815260040161106a90612c4d565b60405180910390fd5b600073ffffffffffffffffffffffffffffffffffffffff168273ffffffffffffffffffffffffffffffffffffffff1614156110e3576040517f08c379a00000000000000000000000000000000000000000000000000000000081526004016110da90612c8d565b60405180910390fd5b6110ee8383836117dd565b6110f9600082610e66565b6001600360008573ffffffffffffffffffffffffffffffffffffffff1673ffffffffffffffffffffffffffffffffffffffff16815260200190815260200160002060008282546111499190612fd9565b925050819055506001600360008473ffffffffffffffffffffffffffffffffffffffff1673ffffffffffffffffffffffffffffffffffffffff16815260200190815260200160002060008282546111a09190612f52565b92505081905550816002600083815260200190815260200160002060006101000a81548173ffffffffffffffffffffffffffffffffffffffff021916908373ffffffffffffffffffffffffffffffffffffffff160217905550808273ffffffffffffffffffffffffffffffffffffffff168473ffffffffffffffffffffffffffffffffffffffff167fddf252ad1be2c89b69c2b068fc378daa952ba7f163c4a11628f55a4df523b3ef60405160405180910390a461125f8383836117ed565b505050565b6000600b60009054906101000a900473ffffffffffffffffffffffffffffffffffffffff16905081600b60006101000a81548173ffffffffffffffffffffffffffffffffffffffff021916908373ffffffffffffffffffffffffffffffffffffffff1602179055508173ffffffffffffffffffffffffffffffffffffffff168173ffffffffffffffffffffffffffffffffffffffff167f8be0079c531659141344cd1fd0a4f28419497f9722a3daafe3b4186f6b6457e060405160405180910390a35050565b8173ffffffffffffffffffffffffffffffffffffffff168373ffffffffffffffffffffffffffffffffffffffff161415611399576040517f08c379a000000000000000000000000000000000000000000000000000000000815260040161139090612cad565b60405180910390fd5b80600560008573ffffffffffffffffffffffffffffffffffffffff1673ffffffffffffffffffffffffffffffffffffffff16815260200190815260200160002060008473ffffffffffffffffffffffffffffffffffffffff1673ffffffffffffffffffffffffffffffffffffffff16815260200190815260200160002060006101000a81548160ff0219169083151502179055508173ffffffffffffffffffffffffffffffffffffffff168373ffffffffffffffffffffffffffffffffffffffff167f17307eab39ab6107e8899845ad3d59bd9653f200f220920489ca2b5937696c318360405161148a9190612bb0565b60405180910390a3505050565b6114a2848484610ffd565b6114ae848484846117f2565b6114ed576040517f08c379a00000000000000000000000000000000000000000000000000000000081526004016114e490612c0d565b60405180910390fd5b50505050565b60606114fe82610df2565b61153d576040517f08c379a000000000000000000000000000000000000000000000000000000000815260040161153490612d8d565b60405180910390fd5b6000600a6000848152602001908152602001600020805461155d906130c3565b80601f0160208091040260200160405190810160405280929190818152602001828054611589906130c3565b80156115d65780601f106115ab576101008083540402835291602001916115d6565b820191906000526020600020905b8154815290600101906020018083116115b957829003601f168201915b5050505050905060006115e7611989565b90506000815114156115fd578192505050611640565b60008251111561163257808260405160200161161a929190612b25565b60405160208183030381529060405292505050611640565b61163b846119a0565b925050505b919050565b600081600001549050919050565b6001816000016000828254019250508190555050565b611683828260405180602001604052806000815250611a47565b5050565b61169082610df2565b6116cf576040517f08c379a00000000000000000000000000000000000000000000000000000000081526004016116c690612d4d565b60405180910390fd5b80600a600084815260200190815260200160002090805190602001906116f6929190612347565b505050565b60007f80ac58cd000000000000000000000000000000000000000000000000000000007bffffffffffffffffffffffffffffffffffffffffffffffffffffffff1916827bffffffffffffffffffffffffffffffffffffffffffffffffffffffff191614806117c657507f5b5e139f000000000000000000000000000000000000000000000000000000007bffffffffffffffffffffffffffffffffffffffffffffffffffffffff1916827bffffffffffffffffffffffffffffffffffffffffffffffffffffffff1916145b806117d657506117d582611aa2565b5b9050919050565b6117e8838383611b0c565b505050565b505050565b60006118138473ffffffffffffffffffffffffffffffffffffffff16611c20565b1561197c578373ffffffffffffffffffffffffffffffffffffffff1663150b7a0261183c610e5e565b8786866040518563ffffffff1660e01b815260040161185e9493929190612b64565b602060405180830381600087803b15801561187857600080fd5b505af19250505080156118a957506040513d601f19601f820116820180604052508101906118a69190612747565b60015b61192c573d80600081146118d9576040519150601f19603f3d011682016040523d82523d6000602084013e6118de565b606091505b50600081511415611924576040517f08c379a000000000000000000000000000000000000000000000000000000000815260040161191b90612c0d565b60405180910390fd5b805181602001fd5b63150b7a0260e01b7bffffffffffffffffffffffffffffffffffffffffffffffffffffffff1916817bffffffffffffffffffffffffffffffffffffffffffffffffffffffff191614915050611981565b600190505b949350505050565b606060405180602001604052806000815250905090565b60606119ab82610df2565b6119ea576040517f08c379a00000000000000000000000000000000000000000000000000000000081526004016119e190612ded565b60405180910390fd5b60006119f4611989565b90506000815111611a145760405180602001604052806000815250611a3f565b80611a1e84611c43565b604051602001611a2f929190612b25565b6040516020818303038152906040525b915050919050565b611a518383611df0565b611a5e60008484846117f2565b611a9d576040517f08c379a0000000000000000000000000000000000000000000000000000000008152600401611a9490612c0d565b60405180910390fd5b505050565b60007f01ffc9a7000000000000000000000000000000000000000000000000000000007bffffffffffffffffffffffffffffffffffffffffffffffffffffffff1916827bffffffffffffffffffffffffffffffffffffffffffffffffffffffff1916149050919050565b611b17838383611fca565b600073ffffffffffffffffffffffffffffffffffffffff168373ffffffffffffffffffffffffffffffffffffffff161415611b5a57611b5581611fcf565b611b99565b8173ffffffffffffffffffffffffffffffffffffffff168373ffffffffffffffffffffffffffffffffffffffff1614611b9857611b978382612018565b5b5b600073ffffffffffffffffffffffffffffffffffffffff168273ffffffffffffffffffffffffffffffffffffffff161415611bdc57611bd781612185565b611c1b565b8273ffffffffffffffffffffffffffffffffffffffff168273ffffffffffffffffffffffffffffffffffffffff1614611c1a57611c1982826122c8565b5b5b505050565b6000808273ffffffffffffffffffffffffffffffffffffffff163b119050919050565b60606000821415611c8b576040518060400160405280600181526020017f30000000000000000000000000000000000000000000000000000000000000008152509050611deb565b600082905060005b60008214611cbd578080611ca690613126565b915050600a82611cb69190612fa8565b9150611c93565b60008167ffffffffffffffff811115611cff577f4e487b7100000000000000000000000000000000000000000000000000000000600052604160045260246000fd5b6040519080825280601f01601f191660200182016040528015611d315781602001600182028036833780820191505090505b5090505b60008514611de457600182611d4a9190612fd9565b9150600a85611d59919061316f565b6030611d659190612f52565b60f81b818381518110611da1577f4e487b7100000000000000000000000000000000000000000000000000000000600052603260045260246000fd5b60200101907effffffffffffffffffffffffffffffffffffffffffffffffffffffffffffff1916908160001a905350600a85611ddd9190612fa8565b9450611d35565b8093505050505b919050565b600073ffffffffffffffffffffffffffffffffffffffff168273ffffffffffffffffffffffffffffffffffffffff161415611e60576040517f08c379a0000000000000000000000000000000000000000000000000000000008152600401611e5790612d6d565b60405180910390fd5b611e6981610df2565b15611ea9576040517f08c379a0000000000000000000000000000000000000000000000000000000008152600401611ea090612c6d565b60405180910390fd5b611eb5600083836117dd565b6001600360008473ffffffffffffffffffffffffffffffffffffffff1673ffffffffffffffffffffffffffffffffffffffff1681526020019081526020016000206000828254611f059190612f52565b92505081905550816002600083815260200190815260200160002060006101000a81548173ffffffffffffffffffffffffffffffffffffffff021916908373ffffffffffffffffffffffffffffffffffffffff160217905550808273ffffffffffffffffffffffffffffffffffffffff16600073ffffffffffffffffffffffffffffffffffffffff167fddf252ad1be2c89b69c2b068fc378daa952ba7f163c4a11628f55a4df523b3ef60405160405180910390a4611fc6600083836117ed565b5050565b505050565b6008805490506009600083815260200190815260200160002081905550600881908060018154018082558091505060019003906000526020600020016000909190919091505550565b6000600161202584610903565b61202f9190612fd9565b9050600060076000848152602001908152602001600020549050818114612114576000600660008673ffffffffffffffffffffffffffffffffffffffff1673ffffffffffffffffffffffffffffffffffffffff168152602001908152602001600020600084815260200190815260200160002054905080600660008773ffffffffffffffffffffffffffffffffffffffff1673ffffffffffffffffffffffffffffffffffffffff168152602001908152602001600020600084815260200190815260200160002081905550816007600083815260200190815260200160002081905550505b6007600084815260200190815260200160002060009055600660008573ffffffffffffffffffffffffffffffffffffffff1673ffffffffffffffffffffffffffffffffffffffff16815260200190815260200160002060008381526020019081526020016000206000905550505050565b600060016008805490506121999190612fd9565b90506000600960008481526020019081526020016000205490506000600883815481106121ef577f4e487b7100000000000000000000000000000000000000000000000000000000600052603260045260246000fd5b906000526020600020015490508060088381548110612237577f4e487b7100000000000000000000000000000000000000000000000000000000600052603260045260246000fd5b9060005260206000200181905550816009600083815260200190815260200160002081905550600960008581526020019081526020016000206000905560088054806122ac577f4e487b7100000000000000000000000000000000000000000000000000000000600052603160045260246000fd5b6001900381819060005260206000200160009055905550505050565b60006122d383610903565b905081600660008573ffffffffffffffffffffffffffffffffffffffff1673ffffffffffffffffffffffffffffffffffffffff168152602001908152602001600020600083815260200190815260200160002081905550806007600084815260200190815260200160002081905550505050565b828054612353906130c3565b90600052602060002090601f01602090048101928261237557600085556123bc565b82601f1061238e57805160ff19168380011785556123bc565b828001600101855582156123bc579182015b828111156123bb5782518255916020019190600101906123a0565b5b5090506123c991906123cd565b5090565b5b808211156123e65760008160009055506001016123ce565b5090565b60006123fd6123f884612ead565b612e88565b90508281526020810184848401111561241557600080fd5b612420848285613081565b509392505050565b600061243b61243684612ede565b612e88565b90508281526020810184848401111561245357600080fd5b61245e848285613081565b509392505050565b60008135905061247581613801565b92915050565b60008135905061248a81613818565b92915050565b60008135905061249f8161382f565b92915050565b6000815190506124b48161382f565b92915050565b600082601f8301126124cb57600080fd5b81356124db8482602086016123ea565b91505092915050565b600082601f8301126124f557600080fd5b8135612505848260208601612428565b91505092915050565b60008135905061251d81613846565b92915050565b60006020828403121561253557600080fd5b600061254384828501612466565b91505092915050565b6000806040838503121561255f57600080fd5b600061256d85828601612466565b925050602061257e85828601612466565b9150509250929050565b60008060006060848603121561259d57600080fd5b60006125ab86828701612466565b93505060206125bc86828701612466565b92505060406125cd8682870161250e565b9150509250925092565b600080600080608085870312156125ed57600080fd5b60006125fb87828801612466565b945050602061260c87828801612466565b935050604061261d8782880161250e565b925050606085013567ffffffffffffffff81111561263a57600080fd5b612646878288016124ba565b91505092959194509250565b6000806040838503121561266557600080fd5b600061267385828601612466565b92505060206126848582860161247b565b9150509250929050565b600080604083850312156126a157600080fd5b60006126af85828601612466565b925050602083013567ffffffffffffffff8111156126cc57600080fd5b6126d8858286016124e4565b9150509250929050565b600080604083850312156126f557600080fd5b600061270385828601612466565b92505060206127148582860161250e565b9150509250929050565b60006020828403121561273057600080fd5b600061273e84828501612490565b91505092915050565b60006020828403121561275957600080fd5b6000612767848285016124a5565b91505092915050565b60006020828403121561278257600080fd5b60006127908482850161250e565b91505092915050565b6127a28161300d565b82525050565b6127b18161301f565b82525050565b60006127c282612f0f565b6127cc8185612f25565b93506127dc818560208601613090565b6127e58161325c565b840191505092915050565b60006127fb82612f1a565b6128058185612f36565b9350612815818560208601613090565b61281e8161325c565b840191505092915050565b600061283482612f1a565b61283e8185612f47565b935061284e818560208601613090565b80840191505092915050565b6000612867602b83612f36565b91506128728261326d565b604082019050919050565b600061288a603283612f36565b9150612895826132bc565b604082019050919050565b60006128ad602683612f36565b91506128b88261330b565b604082019050919050565b60006128d0602583612f36565b91506128db8261335a565b604082019050919050565b60006128f3601c83612f36565b91506128fe826133a9565b602082019050919050565b6000612916602483612f36565b9150612921826133d2565b604082019050919050565b6000612939601983612f36565b915061294482613421565b602082019050919050565b600061295c602c83612f36565b91506129678261344a565b604082019050919050565b600061297f603883612f36565b915061298a82613499565b604082019050919050565b60006129a2602a83612f36565b91506129ad826134e8565b604082019050919050565b60006129c5602983612f36565b91506129d082613537565b604082019050919050565b60006129e8602e83612f36565b91506129f382613586565b604082019050919050565b6000612a0b602083612f36565b9150612a16826135d5565b602082019050919050565b6000612a2e603183612f36565b9150612a39826135fe565b604082019050919050565b6000612a51602c83612f36565b9150612a5c8261364d565b604082019050919050565b6000612a74602083612f36565b9150612a7f8261369c565b602082019050919050565b6000612a97602f83612f36565b9150612aa2826136c5565b604082019050919050565b6000612aba602183612f36565b9150612ac582613714565b604082019050919050565b6000612add603183612f36565b9150612ae882613763565b604082019050919050565b6000612b00602c83612f36565b9150612b0b826137b2565b604082019050919050565b612b1f81613077565b82525050565b6000612b318285612829565b9150612b3d8284612829565b91508190509392505050565b6000602082019050612b5e6000830184612799565b92915050565b6000608082019050612b796000830187612799565b612b866020830186612799565b612b936040830185612b16565b8181036060830152612ba581846127b7565b905095945050505050565b6000602082019050612bc560008301846127a8565b92915050565b60006020820190508181036000830152612be581846127f0565b905092915050565b60006020820190508181036000830152612c068161285a565b9050919050565b60006020820190508181036000830152612c268161287d565b9050919050565b60006020820190508181036000830152612c46816128a0565b9050919050565b60006020820190508181036000830152612c66816128c3565b9050919050565b60006020820190508181036000830152612c86816128e6565b9050919050565b60006020820190508181036000830152612ca681612909565b9050919050565b60006020820190508181036000830152612cc68161292c565b9050919050565b60006020820190508181036000830152612ce68161294f565b9050919050565b60006020820190508181036000830152612d0681612972565b9050919050565b60006020820190508181036000830152612d2681612995565b9050919050565b60006020820190508181036000830152612d46816129b8565b9050919050565b60006020820190508181036000830152612d66816129db565b9050919050565b60006020820190508181036000830152612d86816129fe565b9050919050565b60006020820190508181036000830152612da681612a21565b9050919050565b60006020820190508181036000830152612dc681612a44565b9050919050565b60006020820190508181036000830152612de681612a67565b9050919050565b60006020820190508181036000830152612e0681612a8a565b9050919050565b60006020820190508181036000830152612e2681612aad565b9050919050565b60006020820190508181036000830152612e4681612ad0565b9050919050565b60006020820190508181036000830152612e6681612af3565b9050919050565b6000602082019050612e826000830184612b16565b92915050565b6000612e92612ea3565b9050612e9e82826130f5565b919050565b6000604051905090565b600067ffffffffffffffff821115612ec857612ec761322d565b5b612ed18261325c565b9050602081019050919050565b600067ffffffffffffffff821115612ef957612ef861322d565b5b612f028261325c565b9050602081019050919050565b600081519050919050565b600081519050919050565b600082825260208201905092915050565b600082825260208201905092915050565b600081905092915050565b6000612f5d82613077565b9150612f6883613077565b9250827fffffffffffffffffffffffffffffffffffffffffffffffffffffffffffffffff03821115612f9d57612f9c6131a0565b5b828201905092915050565b6000612fb382613077565b9150612fbe83613077565b925082612fce57612fcd6131cf565b5b828204905092915050565b6000612fe482613077565b9150612fef83613077565b925082821015613002576130016131a0565b5b828203905092915050565b600061301882613057565b9050919050565b60008115159050919050565b60007fffffffff0000000000000000000000000000000000000000000000000000000082169050919050565b600073ffffffffffffffffffffffffffffffffffffffff82169050919050565b6000819050919050565b82818337600083830152505050565b60005b838110156130ae578082015181840152602081019050613093565b838111156130bd576000848401525b50505050565b600060028204905060018216806130db57607f821691505b602082108114156130ef576130ee6131fe565b5b50919050565b6130fe8261325c565b810181811067ffffffffffffffff8211171561311d5761311c61322d565b5b80604052505050565b600061313182613077565b91507fffffffffffffffffffffffffffffffffffffffffffffffffffffffffffffffff821415613164576131636131a0565b5b600182019050919050565b600061317a82613077565b915061318583613077565b925082613195576131946131cf565b5b828206905092915050565b7f4e487b7100000000000000000000000000000000000000000000000000000000600052601160045260246000fd5b7f4e487b7100000000000000000000000000000000000000000000000000000000600052601260045260246000fd5b7f4e487b7100000000000000000000000000000000000000000000000000000000600052602260045260246000fd5b7f4e487b7100000000000000000000000000000000000000000000000000000000600052604160045260246000fd5b6000601f19601f8301169050919050565b7f455243373231456e756d657261626c653a206f776e657220696e646578206f7560008201527f74206f6620626f756e6473000000000000000000000000000000000000000000602082015250565b7f4552433732313a207472616e7366657220746f206e6f6e20455243373231526560008201527f63656976657220696d706c656d656e7465720000000000000000000000000000602082015250565b7f4f776e61626c653a206e6577206f776e657220697320746865207a65726f206160008201527f6464726573730000000000000000000000000000000000000000000000000000602082015250565b7f4552433732313a207472616e736665722066726f6d20696e636f72726563742060008201527f6f776e6572000000000000000000000000000000000000000000000000000000602082015250565b7f4552433732313a20746f6b656e20616c7265616479206d696e74656400000000600082015250565b7f4552433732313a207472616e7366657220746f20746865207a65726f2061646460008201527f7265737300000000000000000000000000000000000000000000000000000000602082015250565b7f4552433732313a20617070726f766520746f2063616c6c657200000000000000600082015250565b7f4552433732313a206f70657261746f7220717565727920666f72206e6f6e657860008201527f697374656e7420746f6b656e0000000000000000000000000000000000000000602082015250565b7f4552433732313a20617070726f76652063616c6c6572206973206e6f74206f7760008201527f6e6572206e6f7220617070726f76656420666f7220616c6c0000000000000000602082015250565b7f4552433732313a2062616c616e636520717565727920666f7220746865207a6560008201527f726f206164647265737300000000000000000000000000000000000000000000602082015250565b7f4552433732313a206f776e657220717565727920666f72206e6f6e657869737460008201527f656e7420746f6b656e0000000000000000000000000000000000000000000000602082015250565b7f45524337323155524953746f726167653a2055524920736574206f66206e6f6e60008201527f6578697374656e7420746f6b656e000000000000000000000000000000000000602082015250565b7f4552433732313a206d696e7420746f20746865207a65726f2061646472657373600082015250565b7f45524337323155524953746f726167653a2055524920717565727920666f722060008201527f6e6f6e6578697374656e7420746f6b656e000000000000000000000000000000602082015250565b7f4552433732313a20617070726f76656420717565727920666f72206e6f6e657860008201527f697374656e7420746f6b656e0000000000000000000000000000000000000000602082015250565b7f4f776e61626c653a2063616c6c6572206973206e6f7420746865206f776e6572600082015250565b7f4552433732314d657461646174613a2055524920717565727920666f72206e6f60008201527f6e6578697374656e7420746f6b656e0000000000000000000000000000000000602082015250565b7f4552433732313a20617070726f76616c20746f2063757272656e74206f776e6560008201527f7200000000000000000000000000000000000000000000000000000000000000602082015250565b7f4552433732313a207472616e736665722063616c6c6572206973206e6f74206f60008201527f776e6572206e6f7220617070726f766564000000000000000000000000000000602082015250565b7f455243373231456e756d657261626c653a20676c6f62616c20696e646578206f60008201527f7574206f6620626f756e64730000000000000000000000000000000000000000602082015250565b61380a8161300d565b811461381557600080fd5b50565b6138218161301f565b811461382c57600080fd5b50565b6138388161302b565b811461384357600080fd5b50565b61384f81613077565b811461385a57600080fd5b5056fea2646970667358221220bbcc67379cdcf3b72f0c0f807be552a5516f094bf95231b5736403a29d520c8f64736f6c63430008040033",
  "linkReferences": {},
  "deployedLinkReferences": {}
}